{
  "_format": "hh-sol-artifact-1",
  "contractName": "TokenAirdrop",
  "sourceName": "contracts/TokenAirdrop.sol",
  "abi": [
    {
      "inputs": [
        {
          "internalType": "address",
          "name": "tokenAddress",
          "type": "address"
        },
        {
          "internalType": "address",
          "name": "signer",
          "type": "address"
        }
      ],
      "stateMutability": "nonpayable",
      "type": "constructor"
    },
    {
      "inputs": [],
      "name": "ECDSAInvalidSignature",
      "type": "error"
    },
    {
      "inputs": [
        {
          "internalType": "uint256",
          "name": "length",
          "type": "uint256"
        }
      ],
      "name": "ECDSAInvalidSignatureLength",
      "type": "error"
    },
    {
      "inputs": [
        {
          "internalType": "bytes32",
          "name": "s",
          "type": "bytes32"
        }
      ],
      "name": "ECDSAInvalidSignatureS",
      "type": "error"
    },
    {
      "inputs": [],
      "name": "EnforcedPause",
      "type": "error"
    },
    {
      "inputs": [],
      "name": "ExpectedPause",
      "type": "error"
    },
    {
      "inputs": [
        {
          "internalType": "address",
          "name": "owner",
          "type": "address"
        }
      ],
      "name": "OwnableInvalidOwner",
      "type": "error"
    },
    {
      "inputs": [
        {
          "internalType": "address",
          "name": "account",
          "type": "address"
        }
      ],
      "name": "OwnableUnauthorizedAccount",
      "type": "error"
    },
    {
      "inputs": [],
      "name": "ReentrancyGuardReentrantCall",
      "type": "error"
    },
    {
      "inputs": [
        {
          "internalType": "address",
          "name": "token",
          "type": "address"
        }
      ],
      "name": "SafeERC20FailedOperation",
      "type": "error"
    },
    {
      "anonymous": false,
      "inputs": [
        {
          "indexed": true,
          "internalType": "address",
          "name": "wallet",
          "type": "address"
        },
        {
          "indexed": true,
          "internalType": "uint256",
          "name": "roundId",
          "type": "uint256"
        },
        {
          "indexed": false,
          "internalType": "uint256",
          "name": "amount",
          "type": "uint256"
        },
        {
          "indexed": false,
          "internalType": "bytes32",
          "name": "nonce",
          "type": "bytes32"
        }
      ],
      "name": "Claimed",
      "type": "event"
    },
    {
      "anonymous": false,
      "inputs": [
        {
          "indexed": true,
          "internalType": "address",
          "name": "previousOwner",
          "type": "address"
        },
        {
          "indexed": true,
          "internalType": "address",
          "name": "newOwner",
          "type": "address"
        }
      ],
      "name": "OwnershipTransferred",
      "type": "event"
    },
    {
      "anonymous": false,
      "inputs": [
        {
          "indexed": false,
          "internalType": "address",
          "name": "account",
          "type": "address"
        }
      ],
      "name": "Paused",
      "type": "event"
    },
    {
      "anonymous": false,
      "inputs": [
        {
          "indexed": true,
          "internalType": "address",
          "name": "signer",
          "type": "address"
        }
      ],
      "name": "SignerUpdated",
      "type": "event"
    },
    {
      "anonymous": false,
      "inputs": [
        {
          "indexed": false,
          "internalType": "address",
          "name": "account",
          "type": "address"
        }
      ],
      "name": "Unpaused",
      "type": "event"
    },
    {
      "inputs": [
        {
          "internalType": "uint256",
          "name": "roundId",
          "type": "uint256"
        },
        {
          "internalType": "uint256",
          "name": "amount",
          "type": "uint256"
        },
        {
          "internalType": "bytes32",
          "name": "nonce",
          "type": "bytes32"
        },
        {
          "internalType": "bytes",
          "name": "signature",
          "type": "bytes"
        }
      ],
      "name": "claim",
      "outputs": [],
      "stateMutability": "nonpayable",
      "type": "function"
    },
    {
      "inputs": [
        {
          "internalType": "bytes32",
          "name": "",
          "type": "bytes32"
        }
      ],
      "name": "nonceUsed",
      "outputs": [
        {
          "internalType": "bool",
          "name": "",
          "type": "bool"
        }
      ],
      "stateMutability": "view",
      "type": "function"
    },
    {
      "inputs": [],
      "name": "owner",
      "outputs": [
        {
          "internalType": "address",
          "name": "",
          "type": "address"
        }
      ],
      "stateMutability": "view",
      "type": "function"
    },
    {
      "inputs": [],
      "name": "pause",
      "outputs": [],
      "stateMutability": "nonpayable",
      "type": "function"
    },
    {
      "inputs": [],
      "name": "paused",
      "outputs": [
        {
          "internalType": "bool",
          "name": "",
          "type": "bool"
        }
      ],
      "stateMutability": "view",
      "type": "function"
    },
    {
      "inputs": [],
      "name": "payoutSigner",
      "outputs": [
        {
          "internalType": "address",
          "name": "",
          "type": "address"
        }
      ],
      "stateMutability": "view",
      "type": "function"
    },
    {
      "inputs": [
        {
          "internalType": "address",
          "name": "to",
          "type": "address"
        },
        {
          "internalType": "uint256",
          "name": "amount",
          "type": "uint256"
        }
      ],
      "name": "recoverTokens",
      "outputs": [],
      "stateMutability": "nonpayable",
      "type": "function"
    },
    {
      "inputs": [],
      "name": "renounceOwnership",
      "outputs": [],
      "stateMutability": "nonpayable",
      "type": "function"
    },
    {
      "inputs": [
        {
          "internalType": "address",
          "name": "signer",
          "type": "address"
        }
      ],
      "name": "setSigner",
      "outputs": [],
      "stateMutability": "nonpayable",
      "type": "function"
    },
    {
      "inputs": [],
      "name": "token",
      "outputs": [
        {
          "internalType": "contract IERC20",
          "name": "",
          "type": "address"
        }
      ],
      "stateMutability": "view",
      "type": "function"
    },
    {
      "inputs": [
        {
          "internalType": "address",
          "name": "newOwner",
          "type": "address"
        }
      ],
      "name": "transferOwnership",
      "outputs": [],
      "stateMutability": "nonpayable",
      "type": "function"
    },
    {
      "inputs": [],
      "name": "unpause",
      "outputs": [],
      "stateMutability": "nonpayable",
      "type": "function"
    }
  ],
  "bytecode": "0x60a060405234801561001057600080fd5b50604051610ca5380380610ca583398101604081905261002f9161017c565b338061005657604051631e4fbdf760e01b8152600060048201526024015b60405180910390fd5b61005f81610110565b50600180556001600160a01b0382166100a25760405162461bcd60e51b81526020600482015260056024820152643a37b5b2b760d91b604482015260640161004d565b6001600160a01b0381166100e15760405162461bcd60e51b815260206004820152600660248201526539b4b3b732b960d11b604482015260640161004d565b6001600160a01b03918216608052600280549190921661010002610100600160a81b03199091161790556101af565b600080546001600160a01b038381166001600160a01b0319831681178455604051919092169283917f8be0079c531659141344cd1fd0a4f28419497f9722a3daafe3b4186f6b6457e09190a35050565b80516001600160a01b038116811461017757600080fd5b919050565b6000806040838503121561018f57600080fd5b61019883610160565b91506101a660208401610160565b90509250929050565b608051610acd6101d8600039600081816101a4015281816101db01526104740152610acd6000f3fe608060405234801561001057600080fd5b50600436106100b45760003560e01c8063715018a611610071578063715018a6146101585780638456cb59146101605780638da5cb5b14610168578063bbfe899f14610179578063f2fde38b1461018c578063fc0c546a1461019f57600080fd5b8063069c9fae146100b95780633f4ba83a146100ce5780635c975abb146100d657806361a4422b146100f257806361bc1208146101155780636c19e78314610145575b600080fd5b6100cc6100c736600461098f565b6101c6565b005b6100cc610206565b60025460ff165b60405190151581526020015b60405180910390f35b6100dd6101003660046109b9565b60036020526000908152604090205460ff1681565b60025461012d9061010090046001600160a01b031681565b6040516001600160a01b0390911681526020016100e9565b6100cc6101533660046109d2565b610218565b6100cc6102b6565b6100cc6102c8565b6000546001600160a01b031661012d565b6100cc6101873660046109f4565b6102d8565b6100cc61019a3660046109d2565b6104eb565b61012d7f000000000000000000000000000000000000000000000000000000000000000081565b6101ce610529565b6102026001600160a01b037f0000000000000000000000000000000000000000000000000000000000000000168383610556565b5050565b61020e610529565b6102166105ad565b565b610220610529565b6001600160a01b0381166102645760405162461bcd60e51b815260206004820152600660248201526539b4b3b732b960d11b60448201526064015b60405180910390fd5b60028054610100600160a81b0319166101006001600160a01b038416908102919091179091556040517f5553331329228fbd4123164423717a4a7539f6dfa1c3279a923b98fd681a6c7390600090a250565b6102be610529565b61021660006105ff565b6102d0610529565b61021661064f565b6102e061068c565b6102e86106b6565b60008381526003602052604090205460ff161561032f5760405162461bcd60e51b81526020600482015260056024820152646e6f6e636560d81b604482015260640161025b565b60408051466020808301919091526bffffffffffffffffffffffff1930606090811b821684860152605484018a905233901b1660748301526088820187905260a88083018790528351808403909101815260c890920190925280519101207f19457468657265756d205369676e6564204d6573736167653a0a3332000000006000908152601c829052603c8120905060006104008286868080601f0160208091040260200160405190810160405280939291908181526020018383808284376000920191909152506106da92505050565b6002549091506001600160a01b03808316610100909204161461044e5760405162461bcd60e51b815260206004820152600660248201526539b4b3b732b960d11b604482015260640161025b565b6000868152600360205260409020805460ff1916600117905561049b6001600160a01b037f0000000000000000000000000000000000000000000000000000000000000000163389610556565b6040805188815260208101889052899133917f336726e3fa30ca51481d8f4925757fbefa26e579834379263188b2ba0eab448e910160405180910390a35050506104e460018055565b5050505050565b6104f3610529565b6001600160a01b03811661051d57604051631e4fbdf760e01b81526000600482015260240161025b565b610526816105ff565b50565b6000546001600160a01b031633146102165760405163118cdaa760e01b815233600482015260240161025b565b604080516001600160a01b038416602482015260448082018490528251808303909101815260649091019091526020810180516001600160e01b031663a9059cbb60e01b1790526105a8908490610704565b505050565b6105b561077b565b6002805460ff191690557f5db9ee0a495bf2e6ff9c91a7834c1ba4fdd244a5e8aa4e537bd38aeae4b073aa335b6040516001600160a01b03909116815260200160405180910390a1565b600080546001600160a01b038381166001600160a01b0319831681178455604051919092169283917f8be0079c531659141344cd1fd0a4f28419497f9722a3daafe3b4186f6b6457e09190a35050565b6106576106b6565b6002805460ff191660011790557f62e78cea01bee320cd4e420270b5ea74000d11b0c9f74754ebdbfc544b05a2586105e23390565b6002600154036106af57604051633ee5aeb560e01b815260040160405180910390fd5b6002600155565b60025460ff16156102165760405163d93c066560e01b815260040160405180910390fd5b6000806000806106ea868661079e565b9250925092506106fa82826107eb565b5090949350505050565b600080602060008451602086016000885af180610727576040513d6000823e3d81fd5b50506000513d9150811561073f57806001141561074c565b6001600160a01b0384163b155b1561077557604051635274afe760e01b81526001600160a01b038516600482015260240161025b565b50505050565b60025460ff1661021657604051638dfc202b60e01b815260040160405180910390fd5b600080600083516041036107d85760208401516040850151606086015160001a6107ca888285856108a4565b9550955095505050506107e4565b50508151600091506002905b9250925092565b60008260038111156107ff576107ff610a81565b03610808575050565b600182600381111561081c5761081c610a81565b0361083a5760405163f645eedf60e01b815260040160405180910390fd5b600282600381111561084e5761084e610a81565b0361086f5760405163fce698f760e01b81526004810182905260240161025b565b600382600381111561088357610883610a81565b03610202576040516335e2f38360e21b81526004810182905260240161025b565b600080807f7fffffffffffffffffffffffffffffff5d576e7357a4501ddfe92f46681b20a08411156108df5750600091506003905082610969565b604080516000808252602082018084528a905260ff891692820192909252606081018790526080810186905260019060a0016020604051602081039080840390855afa158015610933573d6000803e3d6000fd5b5050604051601f1901519150506001600160a01b03811661095f57506000925060019150829050610969565b9250600091508190505b9450945094915050565b80356001600160a01b038116811461098a57600080fd5b919050565b600080604083850312156109a257600080fd5b6109ab83610973565b946020939093013593505050565b6000602082840312156109cb57600080fd5b5035919050565b6000602082840312156109e457600080fd5b6109ed82610973565b9392505050565b600080600080600060808688031215610a0c57600080fd5b853594506020860135935060408601359250606086013567ffffffffffffffff80821115610a3957600080fd5b818801915088601f830112610a4d57600080fd5b813581811115610a5c57600080fd5b896020828501011115610a6e57600080fd5b9699959850939650602001949392505050565b634e487b7160e01b600052602160045260246000fdfea2646970667358221220aba9852b3fdf670a9edac332af7c5465760d1d899f9a53277374e4e73f7cd05c64736f6c63430008180033",
  "linkReferences": {},
  "deployedLinkReferences": {}
}