{
  "_format": "hh-sol-artifact-1",
  "contractName": "BaseRallyPool",
  "sourceName": "contracts/BaseRallyPool.sol",
  "abi": [
    {
      "inputs": [
        {
          "internalType": "uint256",
          "name": "_entryFee",
          "type": "uint256"
        },
        {
          "internalType": "address",
          "name": "_signer",
          "type": "address"
        }
      ],
      "stateMutability": "nonpayable",
      "type": "constructor"
    },
    {
      "inputs": [],
      "name": "ECDSAInvalidSignature",
      "type": "error"
    },
    {
      "inputs": [
        {
          "internalType": "uint256",
          "name": "length",
          "type": "uint256"
        }
      ],
      "name": "ECDSAInvalidSignatureLength",
      "type": "error"
    },
    {
      "inputs": [
        {
          "internalType": "bytes32",
          "name": "s",
          "type": "bytes32"
        }
      ],
      "name": "ECDSAInvalidSignatureS",
      "type": "error"
    },
    {
      "inputs": [],
      "name": "EnforcedPause",
      "type": "error"
    },
    {
      "inputs": [],
      "name": "ExpectedPause",
      "type": "error"
    },
    {
      "inputs": [
        {
          "internalType": "address",
          "name": "owner",
          "type": "address"
        }
      ],
      "name": "OwnableInvalidOwner",
      "type": "error"
    },
    {
      "inputs": [
        {
          "internalType": "address",
          "name": "account",
          "type": "address"
        }
      ],
      "name": "OwnableUnauthorizedAccount",
      "type": "error"
    },
    {
      "inputs": [],
      "name": "ReentrancyGuardReentrantCall",
      "type": "error"
    },
    {
      "anonymous": false,
      "inputs": [
        {
          "indexed": true,
          "internalType": "address",
          "name": "wallet",
          "type": "address"
        },
        {
          "indexed": true,
          "internalType": "uint256",
          "name": "roundId",
          "type": "uint256"
        },
        {
          "indexed": false,
          "internalType": "uint256",
          "name": "amount",
          "type": "uint256"
        },
        {
          "indexed": false,
          "internalType": "bytes32",
          "name": "nonce",
          "type": "bytes32"
        }
      ],
      "name": "Claim",
      "type": "event"
    },
    {
      "anonymous": false,
      "inputs": [
        {
          "indexed": true,
          "internalType": "address",
          "name": "wallet",
          "type": "address"
        },
        {
          "indexed": true,
          "internalType": "uint256",
          "name": "roundId",
          "type": "uint256"
        },
        {
          "indexed": false,
          "internalType": "uint256",
          "name": "fee",
          "type": "uint256"
        }
      ],
      "name": "Enter",
      "type": "event"
    },
    {
      "anonymous": false,
      "inputs": [
        {
          "indexed": true,
          "internalType": "address",
          "name": "previousOwner",
          "type": "address"
        },
        {
          "indexed": true,
          "internalType": "address",
          "name": "newOwner",
          "type": "address"
        }
      ],
      "name": "OwnershipTransferred",
      "type": "event"
    },
    {
      "anonymous": false,
      "inputs": [
        {
          "indexed": false,
          "internalType": "address",
          "name": "account",
          "type": "address"
        }
      ],
      "name": "Paused",
      "type": "event"
    },
    {
      "anonymous": false,
      "inputs": [
        {
          "indexed": false,
          "internalType": "address",
          "name": "account",
          "type": "address"
        }
      ],
      "name": "Unpaused",
      "type": "event"
    },
    {
      "inputs": [
        {
          "internalType": "uint256",
          "name": "roundId",
          "type": "uint256"
        },
        {
          "internalType": "uint256",
          "name": "amount",
          "type": "uint256"
        },
        {
          "internalType": "bytes32",
          "name": "nonce",
          "type": "bytes32"
        },
        {
          "internalType": "bytes",
          "name": "signature",
          "type": "bytes"
        }
      ],
      "name": "claim",
      "outputs": [],
      "stateMutability": "nonpayable",
      "type": "function"
    },
    {
      "inputs": [
        {
          "internalType": "uint256",
          "name": "roundId",
          "type": "uint256"
        }
      ],
      "name": "enter",
      "outputs": [],
      "stateMutability": "payable",
      "type": "function"
    },
    {
      "inputs": [
        {
          "internalType": "uint256",
          "name": "",
          "type": "uint256"
        },
        {
          "internalType": "address",
          "name": "",
          "type": "address"
        }
      ],
      "name": "entered",
      "outputs": [
        {
          "internalType": "bool",
          "name": "",
          "type": "bool"
        }
      ],
      "stateMutability": "view",
      "type": "function"
    },
    {
      "inputs": [],
      "name": "entryFee",
      "outputs": [
        {
          "internalType": "uint256",
          "name": "",
          "type": "uint256"
        }
      ],
      "stateMutability": "view",
      "type": "function"
    },
    {
      "inputs": [
        {
          "internalType": "bytes32",
          "name": "",
          "type": "bytes32"
        }
      ],
      "name": "nonceUsed",
      "outputs": [
        {
          "internalType": "bool",
          "name": "",
          "type": "bool"
        }
      ],
      "stateMutability": "view",
      "type": "function"
    },
    {
      "inputs": [],
      "name": "owner",
      "outputs": [
        {
          "internalType": "address",
          "name": "",
          "type": "address"
        }
      ],
      "stateMutability": "view",
      "type": "function"
    },
    {
      "inputs": [],
      "name": "pause",
      "outputs": [],
      "stateMutability": "nonpayable",
      "type": "function"
    },
    {
      "inputs": [],
      "name": "paused",
      "outputs": [
        {
          "internalType": "bool",
          "name": "",
          "type": "bool"
        }
      ],
      "stateMutability": "view",
      "type": "function"
    },
    {
      "inputs": [],
      "name": "payoutSigner",
      "outputs": [
        {
          "internalType": "address",
          "name": "",
          "type": "address"
        }
      ],
      "stateMutability": "view",
      "type": "function"
    },
    {
      "inputs": [],
      "name": "renounceOwnership",
      "outputs": [],
      "stateMutability": "nonpayable",
      "type": "function"
    },
    {
      "inputs": [
        {
          "internalType": "uint256",
          "name": "_fee",
          "type": "uint256"
        }
      ],
      "name": "setEntryFee",
      "outputs": [],
      "stateMutability": "nonpayable",
      "type": "function"
    },
    {
      "inputs": [
        {
          "internalType": "address",
          "name": "_signer",
          "type": "address"
        }
      ],
      "name": "setSigner",
      "outputs": [],
      "stateMutability": "nonpayable",
      "type": "function"
    },
    {
      "inputs": [
        {
          "internalType": "address",
          "name": "newOwner",
          "type": "address"
        }
      ],
      "name": "transferOwnership",
      "outputs": [],
      "stateMutability": "nonpayable",
      "type": "function"
    },
    {
      "inputs": [],
      "name": "unpause",
      "outputs": [],
      "stateMutability": "nonpayable",
      "type": "function"
    },
    {
      "inputs": [
        {
          "internalType": "address payable",
          "name": "to",
          "type": "address"
        },
        {
          "internalType": "uint256",
          "name": "amount",
          "type": "uint256"
        }
      ],
      "name": "withdraw",
      "outputs": [],
      "stateMutability": "nonpayable",
      "type": "function"
    },
    {
      "stateMutability": "payable",
      "type": "receive"
    }
  ],
  "bytecode": "0x608060405234801561001057600080fd5b50604051610e4b380380610e4b83398101604081905261002f91610124565b338061005657604051631e4fbdf760e01b8152600060048201526024015b60405180910390fd5b61005f816100d4565b50600180556001600160a01b0381166100a35760405162461bcd60e51b815260206004820152600660248201526539b4b3b732b960d11b604482015260640161004d565b600391909155600280546001600160a01b0390921661010002610100600160a81b0319909216919091179055610161565b600080546001600160a01b038381166001600160a01b0319831681178455604051919092169283917f8be0079c531659141344cd1fd0a4f28419497f9722a3daafe3b4186f6b6457e09190a35050565b6000806040838503121561013757600080fd5b825160208401519092506001600160a01b038116811461015657600080fd5b809150509250929050565b610cdb806101706000396000f3fe6080604052600436106100ec5760003560e01c8063715018a61161008a578063bbfe899f11610059578063bbfe899f14610283578063eb770d0c146102a3578063f2fde38b146102c3578063f3fef3a3146102e357600080fd5b8063715018a6146102285780638456cb591461023d5780638da5cb5b14610252578063a59f3e0c1461027057600080fd5b80635c975abb116100c65780635c975abb1461018357806361a4422b1461019b57806361bc1208146101cb5780636c19e7831461020857600080fd5b8063072ea61c146100f85780633f4ba83a146101215780634d3338141461013857600080fd5b366100f357005b600080fd5b34801561010457600080fd5b5061010e60035481565b6040519081526020015b60405180910390f35b34801561012d57600080fd5b50610136610303565b005b34801561014457600080fd5b50610173610153366004610b69565b600460209081526000928352604080842090915290825290205460ff1681565b6040519015158152602001610118565b34801561018f57600080fd5b5060025460ff16610173565b3480156101a757600080fd5b506101736101b6366004610b99565b60056020526000908152604090205460ff1681565b3480156101d757600080fd5b506002546101f09061010090046001600160a01b031681565b6040516001600160a01b039091168152602001610118565b34801561021457600080fd5b50610136610223366004610bb2565b610315565b34801561023457600080fd5b50610136610389565b34801561024957600080fd5b5061013661039b565b34801561025e57600080fd5b506000546001600160a01b03166101f0565b61013661027e366004610b99565b6103ab565b34801561028f57600080fd5b5061013661029e366004610bd6565b6104ab565b3480156102af57600080fd5b506101366102be366004610b99565b61070a565b3480156102cf57600080fd5b506101366102de366004610bb2565b610717565b3480156102ef57600080fd5b506101366102fe366004610c63565b610752565b61030b6107d4565b610313610801565b565b61031d6107d4565b6001600160a01b0381166103615760405162461bcd60e51b815260206004820152600660248201526539b4b3b732b960d11b60448201526064015b60405180910390fd5b600280546001600160a01b0390921661010002610100600160a81b0319909216919091179055565b6103916107d4565b6103136000610853565b6103a36107d4565b6103136108a3565b6103b36108e0565b6103bb61090a565b60035434146103f25760405162461bcd60e51b815260206004820152600360248201526266656560e81b6044820152606401610358565b600081815260046020908152604080832033845290915290205460ff16156104465760405162461bcd60e51b8152602060048201526007602482015266616c726561647960c81b6044820152606401610358565b60008181526004602090815260408083203380855290835292819020805460ff19166001179055513481528392917f5087fbec8bdd9b358f62d89babb5f4dd44f8576230a9520c90e3407d6f4dd1fb910160405180910390a36104a860018055565b50565b6104b36108e0565b6104bb61090a565b60008381526005602052604090205460ff16156105025760405162461bcd60e51b81526020600482015260056024820152646e6f6e636560d81b6044820152606401610358565b60408051466020808301919091526bffffffffffffffffffffffff1930606090811b821684860152605484018a905233901b1660748301526088820187905260a88083018790528351808403909101815260c890920190925280519101207f19457468657265756d205369676e6564204d6573736167653a0a3332000000006000908152601c829052603c8120905060006105d38286868080601f01602080910402602001604051908101604052809392919081815260200183838082843760009201919091525061092e92505050565b6002549091506001600160a01b0380831661010090920416146106215760405162461bcd60e51b815260206004820152600660248201526539b4b3b732b960d11b6044820152606401610358565b600086815260056020526040808220805460ff1916600117905551339089908381818185875af1925050503d8060008114610678576040519150601f19603f3d011682016040523d82523d6000602084013e61067d565b606091505b50509050806106b95760405162461bcd60e51b81526020600482015260086024820152673a3930b739b332b960c11b6044820152606401610358565b60408051898152602081018990528a9133917fb23c1479f172495ed21554b204c9957c1ba10da311c9dcb4c5c3064a49ba8a99910160405180910390a35050505061070360018055565b5050505050565b6107126107d4565b600355565b61071f6107d4565b6001600160a01b03811661074957604051631e4fbdf760e01b815260006004820152602401610358565b6104a881610853565b61075a6107d4565b804710156107995760405162461bcd60e51b815260206004820152600c60248201526b1a5b9cdd59999a58da595b9d60a21b6044820152606401610358565b6040516001600160a01b0383169082156108fc029083906000818181858888f193505050501580156107cf573d6000803e3d6000fd5b505050565b6000546001600160a01b031633146103135760405163118cdaa760e01b8152336004820152602401610358565b610809610958565b6002805460ff191690557f5db9ee0a495bf2e6ff9c91a7834c1ba4fdd244a5e8aa4e537bd38aeae4b073aa335b6040516001600160a01b03909116815260200160405180910390a1565b600080546001600160a01b038381166001600160a01b0319831681178455604051919092169283917f8be0079c531659141344cd1fd0a4f28419497f9722a3daafe3b4186f6b6457e09190a35050565b6108ab61090a565b6002805460ff191660011790557f62e78cea01bee320cd4e420270b5ea74000d11b0c9f74754ebdbfc544b05a2586108363390565b60026001540361090357604051633ee5aeb560e01b815260040160405180910390fd5b6002600155565b60025460ff16156103135760405163d93c066560e01b815260040160405180910390fd5b60008060008061093e868661097b565b92509250925061094e82826109c8565b5090949350505050565b60025460ff1661031357604051638dfc202b60e01b815260040160405180910390fd5b600080600083516041036109b55760208401516040850151606086015160001a6109a788828585610a85565b9550955095505050506109c1565b50508151600091506002905b9250925092565b60008260038111156109dc576109dc610c8f565b036109e5575050565b60018260038111156109f9576109f9610c8f565b03610a175760405163f645eedf60e01b815260040160405180910390fd5b6002826003811115610a2b57610a2b610c8f565b03610a4c5760405163fce698f760e01b815260048101829052602401610358565b6003826003811115610a6057610a60610c8f565b03610a81576040516335e2f38360e21b815260048101829052602401610358565b5050565b600080807f7fffffffffffffffffffffffffffffff5d576e7357a4501ddfe92f46681b20a0841115610ac05750600091506003905082610b4a565b604080516000808252602082018084528a905260ff891692820192909252606081018790526080810186905260019060a0016020604051602081039080840390855afa158015610b14573d6000803e3d6000fd5b5050604051601f1901519150506001600160a01b038116610b4057506000925060019150829050610b4a565b9250600091508190505b9450945094915050565b6001600160a01b03811681146104a857600080fd5b60008060408385031215610b7c57600080fd5b823591506020830135610b8e81610b54565b809150509250929050565b600060208284031215610bab57600080fd5b5035919050565b600060208284031215610bc457600080fd5b8135610bcf81610b54565b9392505050565b600080600080600060808688031215610bee57600080fd5b853594506020860135935060408601359250606086013567ffffffffffffffff80821115610c1b57600080fd5b818801915088601f830112610c2f57600080fd5b813581811115610c3e57600080fd5b896020828501011115610c5057600080fd5b9699959850939650602001949392505050565b60008060408385031215610c7657600080fd5b8235610c8181610b54565b946020939093013593505050565b634e487b7160e01b600052602160045260246000fdfea26469706673582212201d13d0542ce90d54e5123e845ce072f64c00f51844e4d08dcf88a2f269d05d1364736f6c63430008180033",
  "linkReferences": {},
  "deployedLinkReferences": {}
}