{
  "_format": "hh-sol-artifact-1",
  "contractName": "TokenPayoutVault",
  "sourceName": "contracts/TokenPayoutVault.sol",
  "abi": [
    {
      "inputs": [
        {
          "internalType": "address",
          "name": "token",
          "type": "address"
        },
        {
          "internalType": "address",
          "name": "initialManager",
          "type": "address"
        }
      ],
      "stateMutability": "nonpayable",
      "type": "constructor"
    },
    {
      "inputs": [],
      "name": "EnforcedPause",
      "type": "error"
    },
    {
      "inputs": [],
      "name": "ExpectedPause",
      "type": "error"
    },
    {
      "inputs": [
        {
          "internalType": "address",
          "name": "owner",
          "type": "address"
        }
      ],
      "name": "OwnableInvalidOwner",
      "type": "error"
    },
    {
      "inputs": [
        {
          "internalType": "address",
          "name": "account",
          "type": "address"
        }
      ],
      "name": "OwnableUnauthorizedAccount",
      "type": "error"
    },
    {
      "inputs": [],
      "name": "ReentrancyGuardReentrantCall",
      "type": "error"
    },
    {
      "inputs": [
        {
          "internalType": "address",
          "name": "token",
          "type": "address"
        }
      ],
      "name": "SafeERC20FailedOperation",
      "type": "error"
    },
    {
      "anonymous": false,
      "inputs": [
        {
          "indexed": true,
          "internalType": "address",
          "name": "previousOwner",
          "type": "address"
        },
        {
          "indexed": true,
          "internalType": "address",
          "name": "newOwner",
          "type": "address"
        }
      ],
      "name": "OwnershipTransferred",
      "type": "event"
    },
    {
      "anonymous": false,
      "inputs": [
        {
          "indexed": false,
          "internalType": "address",
          "name": "account",
          "type": "address"
        }
      ],
      "name": "Paused",
      "type": "event"
    },
    {
      "anonymous": false,
      "inputs": [
        {
          "indexed": true,
          "internalType": "address",
          "name": "to",
          "type": "address"
        },
        {
          "indexed": false,
          "internalType": "uint256",
          "name": "amount",
          "type": "uint256"
        }
      ],
      "name": "Payout",
      "type": "event"
    },
    {
      "anonymous": false,
      "inputs": [
        {
          "indexed": false,
          "internalType": "uint256",
          "name": "count",
          "type": "uint256"
        },
        {
          "indexed": false,
          "internalType": "uint256",
          "name": "totalAmount",
          "type": "uint256"
        }
      ],
      "name": "PayoutBatch",
      "type": "event"
    },
    {
      "anonymous": false,
      "inputs": [
        {
          "indexed": true,
          "internalType": "address",
          "name": "previousManager",
          "type": "address"
        },
        {
          "indexed": true,
          "internalType": "address",
          "name": "newManager",
          "type": "address"
        }
      ],
      "name": "PayoutManagerUpdated",
      "type": "event"
    },
    {
      "anonymous": false,
      "inputs": [
        {
          "indexed": false,
          "internalType": "address",
          "name": "account",
          "type": "address"
        }
      ],
      "name": "Unpaused",
      "type": "event"
    },
    {
      "inputs": [],
      "name": "owner",
      "outputs": [
        {
          "internalType": "address",
          "name": "",
          "type": "address"
        }
      ],
      "stateMutability": "view",
      "type": "function"
    },
    {
      "inputs": [],
      "name": "pause",
      "outputs": [],
      "stateMutability": "nonpayable",
      "type": "function"
    },
    {
      "inputs": [],
      "name": "paused",
      "outputs": [
        {
          "internalType": "bool",
          "name": "",
          "type": "bool"
        }
      ],
      "stateMutability": "view",
      "type": "function"
    },
    {
      "inputs": [
        {
          "internalType": "address",
          "name": "to",
          "type": "address"
        },
        {
          "internalType": "uint256",
          "name": "amount",
          "type": "uint256"
        }
      ],
      "name": "payout",
      "outputs": [],
      "stateMutability": "nonpayable",
      "type": "function"
    },
    {
      "inputs": [
        {
          "internalType": "address[]",
          "name": "to",
          "type": "address[]"
        },
        {
          "internalType": "uint256[]",
          "name": "amounts",
          "type": "uint256[]"
        }
      ],
      "name": "payoutBatch",
      "outputs": [],
      "stateMutability": "nonpayable",
      "type": "function"
    },
    {
      "inputs": [],
      "name": "payoutManager",
      "outputs": [
        {
          "internalType": "address",
          "name": "",
          "type": "address"
        }
      ],
      "stateMutability": "view",
      "type": "function"
    },
    {
      "inputs": [],
      "name": "payoutToken",
      "outputs": [
        {
          "internalType": "contract IERC20",
          "name": "",
          "type": "address"
        }
      ],
      "stateMutability": "view",
      "type": "function"
    },
    {
      "inputs": [
        {
          "internalType": "address",
          "name": "token",
          "type": "address"
        },
        {
          "internalType": "address",
          "name": "to",
          "type": "address"
        },
        {
          "internalType": "uint256",
          "name": "amount",
          "type": "uint256"
        }
      ],
      "name": "recoverERC20",
      "outputs": [],
      "stateMutability": "nonpayable",
      "type": "function"
    },
    {
      "inputs": [
        {
          "internalType": "address",
          "name": "to",
          "type": "address"
        },
        {
          "internalType": "uint256",
          "name": "amount",
          "type": "uint256"
        }
      ],
      "name": "recoverPayoutTokens",
      "outputs": [],
      "stateMutability": "nonpayable",
      "type": "function"
    },
    {
      "inputs": [],
      "name": "renounceOwnership",
      "outputs": [],
      "stateMutability": "nonpayable",
      "type": "function"
    },
    {
      "inputs": [
        {
          "internalType": "address",
          "name": "newManager",
          "type": "address"
        }
      ],
      "name": "setPayoutManager",
      "outputs": [],
      "stateMutability": "nonpayable",
      "type": "function"
    },
    {
      "inputs": [
        {
          "internalType": "address",
          "name": "newOwner",
          "type": "address"
        }
      ],
      "name": "transferOwnership",
      "outputs": [],
      "stateMutability": "nonpayable",
      "type": "function"
    },
    {
      "inputs": [],
      "name": "unpause",
      "outputs": [],
      "stateMutability": "nonpayable",
      "type": "function"
    },
    {
      "inputs": [],
      "name": "vaultBalance",
      "outputs": [
        {
          "internalType": "uint256",
          "name": "",
          "type": "uint256"
        }
      ],
      "stateMutability": "view",
      "type": "function"
    },
    {
      "inputs": [
        {
          "internalType": "address payable",
          "name": "to",
          "type": "address"
        },
        {
          "internalType": "uint256",
          "name": "amount",
          "type": "uint256"
        }
      ],
      "name": "withdrawETH",
      "outputs": [],
      "stateMutability": "nonpayable",
      "type": "function"
    },
    {
      "stateMutability": "payable",
      "type": "receive"
    }
  ],
  "bytecode": "0x60a060405234801561001057600080fd5b5060405162000fd738038062000fd78339810160408190526100319161015a565b338061005857604051631e4fbdf760e01b8152600060048201526024015b60405180910390fd5b610061816100ee565b50600180556001600160a01b0382166100a45760405162461bcd60e51b81526020600482015260056024820152643a37b5b2b760d91b604482015260640161004f565b6001600160a01b038083166080528116156100bf57806100c1565b335b600260016101000a8154816001600160a01b0302191690836001600160a01b03160217905550505061018d565b600080546001600160a01b038381166001600160a01b0319831681178455604051919092169283917f8be0079c531659141344cd1fd0a4f28419497f9722a3daafe3b4186f6b6457e09190a35050565b80516001600160a01b038116811461015557600080fd5b919050565b6000806040838503121561016d57600080fd5b6101768361013e565b91506101846020840161013e565b90509250929050565b608051610e0b620001cc600039600081816102060152818161030b015281816103bc01528181610516015281816105c801526109000152610e0b6000f3fe6080604052600436106100ec5760003560e01c80634efa82b61161008a5780638456cb59116100595780638456cb59146102805780638da5cb5b14610295578063c9b2f348146102b3578063f2fde38b146102d357600080fd5b80634efa82b6146101f45780635c975abb14610228578063715018a61461024b5780637181896f1461026057600080fd5b80631466e176116100c65780631466e176146101625780633083a8e3146101825780633f4ba83a146101bf5780634782f779146101d457600080fd5b80630bf6cc08146100f85780631171bda914610120578063117de2fd1461014257600080fd5b366100f357005b600080fd5b34801561010457600080fd5b5061010d6102f3565b6040519081526020015b60405180910390f35b34801561012c57600080fd5b5061014061013b366004610c1a565b610383565b005b34801561014e57600080fd5b5061014061015d366004610c5b565b61043d565b34801561016e57600080fd5b5061014061017d366004610c5b565b61058d565b34801561018e57600080fd5b506002546101a79061010090046001600160a01b031681565b6040516001600160a01b039091168152602001610117565b3480156101cb57600080fd5b506101406105ef565b3480156101e057600080fd5b506101406101ef366004610c5b565b610601565b34801561020057600080fd5b506101a77f000000000000000000000000000000000000000000000000000000000000000081565b34801561023457600080fd5b5060025460ff166040519015158152602001610117565b34801561025757600080fd5b506101406106cb565b34801561026c57600080fd5b5061014061027b366004610c87565b6106dd565b34801561028c57600080fd5b5061014061078c565b3480156102a157600080fd5b506000546001600160a01b03166101a7565b3480156102bf57600080fd5b506101406102ce366004610cf7565b61079c565b3480156102df57600080fd5b506101406102ee366004610c87565b610987565b6040516370a0823160e01b81523060048201526000907f00000000000000000000000000000000000000000000000000000000000000006001600160a01b0316906370a0823190602401602060405180830381865afa15801561035a573d6000803e3d6000fd5b505050506040513d601f19601f8201168201806040525081019061037e9190610d63565b905090565b61038b6109c5565b6001600160a01b0382166103ba5760405162461bcd60e51b81526004016103b190610d7c565b60405180910390fd5b7f00000000000000000000000000000000000000000000000000000000000000006001600160a01b0316836001600160a01b0316036104245760405162461bcd60e51b81526020600482015260066024820152651c185e5bdd5d60d21b60448201526064016103b1565b6104386001600160a01b03841683836109f2565b505050565b610445610a44565b61044d610a6e565b6000546001600160a01b0316331480610475575060025461010090046001600160a01b031633145b6104aa5760405162461bcd60e51b81526004016103b1906020808252600490820152630c2eae8d60e31b604082015260600190565b6001600160a01b0382166104d05760405162461bcd60e51b81526004016103b190610d7c565b600081116105095760405162461bcd60e51b8152602060048201526006602482015265185b5bdd5b9d60d21b60448201526064016103b1565b61053d6001600160a01b037f00000000000000000000000000000000000000000000000000000000000000001683836109f2565b816001600160a01b03167f5afeca38b2064c23a692c4cf353015d80ab3ecc417b4f893f372690c11fbd9a68260405161057891815260200190565b60405180910390a261058960018055565b5050565b6105956109c5565b6001600160a01b0382166105bb5760405162461bcd60e51b81526004016103b190610d7c565b6105896001600160a01b037f00000000000000000000000000000000000000000000000000000000000000001683836109f2565b6105f76109c5565b6105ff610a92565b565b6106096109c5565b8047101561063f5760405162461bcd60e51b81526020600482015260036024820152620cae8d60eb1b60448201526064016103b1565b6000826001600160a01b03168260405160006040518083038185875af1925050503d806000811461068c576040519150601f19603f3d011682016040523d82523d6000602084013e610691565b606091505b50509050806104385760405162461bcd60e51b81526004016103b1906020808252600490820152633c3332b960e11b604082015260600190565b6106d36109c5565b6105ff6000610ae4565b6106e56109c5565b6001600160a01b0381166107255760405162461bcd60e51b815260206004820152600760248201526636b0b730b3b2b960c91b60448201526064016103b1565b6002546040516001600160a01b0380841692610100900416907f105eabfa34e1263a46378c3c1eaf393116e32be9eb34bc7f671439d9de8d6fad90600090a3600280546001600160a01b0390921661010002610100600160a81b0319909216919091179055565b6107946109c5565b6105ff610b34565b6107a4610a44565b6107ac610a6e565b6000546001600160a01b03163314806107d4575060025461010090046001600160a01b031633145b6108095760405162461bcd60e51b81526004016103b1906020808252600490820152630c2eae8d60e31b604082015260600190565b82811461083e5760405162461bcd60e51b81526020600482015260036024820152623632b760e91b60448201526064016103b1565b6000805b8481101561093d57600086868381811061085e5761085e610d98565b90506020020160208101906108739190610c87565b9050600085858481811061088957610889610d98565b60200291909101359150506001600160a01b0382166108ba5760405162461bcd60e51b81526004016103b190610d7c565b600081116108f35760405162461bcd60e51b8152602060048201526006602482015265185b5bdd5b9d60d21b60448201526064016103b1565b6109276001600160a01b037f00000000000000000000000000000000000000000000000000000000000000001683836109f2565b6109318185610dae565b93505050600101610842565b5060408051858152602081018390527f6aa932df2ff650ab8802c88d1cfced8ed600563203c8f89f1de35b8095a2683a910160405180910390a15061098160018055565b50505050565b61098f6109c5565b6001600160a01b0381166109b957604051631e4fbdf760e01b8152600060048201526024016103b1565b6109c281610ae4565b50565b6000546001600160a01b031633146105ff5760405163118cdaa760e01b81523360048201526024016103b1565b604080516001600160a01b038416602482015260448082018490528251808303909101815260649091019091526020810180516001600160e01b031663a9059cbb60e01b179052610438908490610b71565b600260015403610a6757604051633ee5aeb560e01b815260040160405180910390fd5b6002600155565b60025460ff16156105ff5760405163d93c066560e01b815260040160405180910390fd5b610a9a610be2565b6002805460ff191690557f5db9ee0a495bf2e6ff9c91a7834c1ba4fdd244a5e8aa4e537bd38aeae4b073aa335b6040516001600160a01b03909116815260200160405180910390a1565b600080546001600160a01b038381166001600160a01b0319831681178455604051919092169283917f8be0079c531659141344cd1fd0a4f28419497f9722a3daafe3b4186f6b6457e09190a35050565b610b3c610a6e565b6002805460ff191660011790557f62e78cea01bee320cd4e420270b5ea74000d11b0c9f74754ebdbfc544b05a258610ac73390565b600080602060008451602086016000885af180610b94576040513d6000823e3d81fd5b50506000513d91508115610bac578060011415610bb9565b6001600160a01b0384163b155b1561098157604051635274afe760e01b81526001600160a01b03851660048201526024016103b1565b60025460ff166105ff57604051638dfc202b60e01b815260040160405180910390fd5b6001600160a01b03811681146109c257600080fd5b600080600060608486031215610c2f57600080fd5b8335610c3a81610c05565b92506020840135610c4a81610c05565b929592945050506040919091013590565b60008060408385031215610c6e57600080fd5b8235610c7981610c05565b946020939093013593505050565b600060208284031215610c9957600080fd5b8135610ca481610c05565b9392505050565b60008083601f840112610cbd57600080fd5b50813567ffffffffffffffff811115610cd557600080fd5b6020830191508360208260051b8501011115610cf057600080fd5b9250929050565b60008060008060408587031215610d0d57600080fd5b843567ffffffffffffffff80821115610d2557600080fd5b610d3188838901610cab565b90965094506020870135915080821115610d4a57600080fd5b50610d5787828801610cab565b95989497509550505050565b600060208284031215610d7557600080fd5b5051919050565b602080825260029082015261746f60f01b604082015260600190565b634e487b7160e01b600052603260045260246000fd5b80820180821115610dcf57634e487b7160e01b600052601160045260246000fd5b9291505056fea264697066735822122073de8cd794a015107217dfcacdd33ffb3bcbfd487fad904dc549cb041625021264736f6c63430008180033",
  "linkReferences": {},
  "deployedLinkReferences": {}
}